:1000000012C0189518951895189518951895189563
:100010001895189518951895189518951895189578
:100020001895189518958FE58DBFC0E4E8E34E2E1E
:1000300084E08EBFD4E0F4E05F2EA89584B7082E4C
:10004000877F84BF88E1992781BD91BDEEEFF3E002
:10005000A0E6B0E088278D933197E9F76624B89839
:10006000A59A8A9A8B9A8C9A8D9AA49AA09880E0E5
:100070008FBD82E08EBD8EB5887F8EBD80E090E022
:100080009DBD8CBD80E0809390007091B5007F7B1A
:100090007093B5007091B5007F777093B50080E0E4
:1000A00090E0A6EBB0E08D939C937091B5007F7DBE
:1000B0007093B500EBD20091B400043610F009F053
:1000C00001C004C080E08093B400ECD284EF91E0E2
:1000D000BFD6AC9AB5D2B4D2AC9884EF91E0B8D682
:1000E000789408D0989905C0ABD284E690E0B0D659
:1000F00052D1F7CF7091B5007F777093B500B09B68
:1001000049C1B09901C001C0FCCF80E090E09DBD25
:100110008CBD82E08EBDB09901C0FDCF8EB5887FC9
:100120008EBDACE4B0E00D911C910C3A5DE015077A
:1001300081E008F480E08F93ACE4B0E00D911C9175
:10014000003652E2150781E010F009F080E09F913F
:100150008923882309F41EC1B09B21C080E090E070
:100160009DBD8CBD82E08EBDB09B01C0FDCF8EB524
:10017000887F8EBDA0E9B0E08C918F5F8C93ACE45A
:10018000B0E08D919C91A0E9B0E0AD90BB24AEE5CC
:10019000B0E0AA0CBB1CAA0DBB1D8D939C930091D3
:1001A0009000083109F001C001C0D6CF81E08093F2
:1001B000900000919000083110F009F091C0A0E982
:1001C000B0E0AD90BB24AEE5B0E0AA0CBB1CAA0D1C
:1001D000BB1D0D911C91083750E0150781E008F414
:1001E00080E08F93A0E9B0E0AD90BB24AEE5B0E035
:1001F000AA0CBB1CAA0DBB1D0D911C910E3551E024
:10020000150781E010F009F080E09F918923882391
:1002100009F40FC080E090E0A0E9B0E0AD90BB240D
:10022000AEE5B0E0AA0CBB1CAA0DBB1D8D939C9340
:1002300050C0A0E9B0E0AD90BB24AEE5B0E0AA0CA0
:10024000BB1CAA0DBB1D0D911C91003951E0150777
:1002500081E008F480E08F93A0E9B0E0AD90BB248A
:10026000AEE5B0E0AA0CBB1CAA0DBB1D0D911C9104
:10027000023553E0150781E010F009F080E09F910E
:100280008923882309F40FC081E090E0A0E9B0E061
:10029000AD90BB24AEE5B0E0AA0CBB1CAA0DBB1D03
:1002A0008D939C9316C080E08093900000E010E056
:1002B00020E030E0ABEAB0E00D931D932D933C932A
:1002C00080E08093AF007091B5007F777093B500A8
:1002D0000895A0E9B0E08C918F5F8C9308F469CF0A
:1002E00080E080939000A1E9B0E088278C93A6EA93
:1002F000B0E088278C9381E080939000009190007B
:10030000043110F009F015C0E0E9F0E0A190BB2441
:10031000EEE5F0E0AA0CBB1CEA0DFB1DA1E9B0E084
:1003200081D5C3D5A0E9B0E08C918F5F8C9308F4A0
:10033000E5CF85E18093900000919000083110F0A6
:1003400009F015C0E0E9F0E0A190BB24EEE5F0E093
:10035000AA0CBB1CEA0DFB1DA6EAB0E063D5A5D52F
:10036000A0E9B0E08C918F5F8C9308F4E5CFA1E910
:10037000B0E007D6ABEAB0E00D931D932D933D930B
:10038000A6EAB0E0FED5AFEAB0E00C93E4D080E09E
:100390008093900008959298939894989598AC9A29
:1003A0007091B50070627093B50086E990E050D509
:1003B00098993AC045D1989926C0A6EBB0E02BD5C4
:1003C00081E090E045D5A6EBB0E00D911C91083896
:1003D00053E1150708F416C080E090E0A6EBB0E00A
:1003E0008D939C932DD180E08093B4005BD1AD9A26
:1003F000E1E0F0E01ED5E1E0F0E01BD5AD98AC986F
:10040000089501C0D8CFA6EBB0E00D911C9108383B
:1004100053E1150708F008C080E090E0A6EBB0E0DB
:100420008D939C93AC98089565DEA5EBB0E08C911C
:1004300087FB0EF088C004D10091B400003009F0B1
:1004400015C0A4EBB0E08C918F5F8C932BD1ABEAFD
:10045000B0E00D911D912D913C91A0EBB0E00D937A
:100460001D932D933C932AD16FC06CC08AE090E01D
:10047000A8EBB0E08D939C9381E080939000409135
:10048000B40000919000041710F009F032C054D16C
:10049000ABEAB0E04D915D916D917C91A0EBB0E045
:1004A0000D911D912D913C91EDD409F00CC0AD9AA8
:1004B000E1E0F0E0BED4AD987091B5007064709347
:1004C000B50017C005C07091B5007F7B7093B50073
:1004D000A8EBB0E00D911C910F5F1F4FA8EBB0E0AF
:1004E0000D931C93A0E9B0E08C918F5F8C9308F47E
:1004F000C6CFA5EBB0E08C9186FB0EF423C0A4EB35
:10050000B0E08C918F5F8C930091B400043610F0B2
:1005100009F001C009C084E68093B400AD9AE5E01B
:10052000F0E087D4AD980EC0BDD0ABEAB0E00D913D
:100530001D912D913C91A0EBB0E00D931D932D9357
:100540003C93BCD001C034CF7091B5007F777093DD
:10055000B500AC9808957091B50070687093B500BF
:10056000A5EBB0E08C9185FB0EF435C08AE090E0FD
:10057000A8EBB0E08D939C9381E080939000409134
:10058000B40000919000041710F009F024C0D4D0FA
:10059000ABEAB0E04D915D916D917C91A0EBB0E044
:1005A0000D911D912D913C916DD409F003C019D08E
:1005B00047D011C0A8EBB0E00D911C910F5F1F4F09
:1005C000A8EBB0E00D931C93A0E9B0E08C918F5F95
:1005D0008C9308F4D4CF7091B5007F7D7093B500F3
:1005E00008950091AF00013009F008C082B394E093
:1005F000892782BB82E390E02BD421C0023009F02E
:1006000008C082B398E0892782BB82E390E020D4BF
:1006100016C0043009F008C082B390E1892782BB7C
:1006200082E390E015D40BC0083009F008C082B313
:1006300090E2892782BB82E390E00AD400C008954B
:10064000AD9A80E590E004D4AD988EE190E000D4BE
:100650000895DAD410EAEFD41091B800ECD41091D8
:10066000BB00E9D4DFD48AE090E0F2D30895CCD483
:1006700010EAE1D41091B800DED4C6D411EADBD47C
:10068000F7D4AAEBB0E01C93CDD4089581E090E0BC
:10069000A8EBB0E08D939C93EADF8091BA00809341
:1006A000B400089581E090E0A8EBB0E08D939C93B6
:1006B0008091B4008093BB00CCDF0895ACEBB0E038
:1006C00088278C93E0EBF0E0ACEBB0E046D483E01D
:1006D000ECEBF0E002E00A93A5ECB0E080D485E01A
:1006E000ECEBF0E002E00A93A8ECB0E078D487E00D
:1006F000ECEBF0E002E00A93ABECB0E070D454D045
:10070000A5ECB0E04DD4ABEBB0E00C93A2DFA8EBCE
:10071000B0E081D3A8ECB0E043D4ABEBB0E00C93F5
:1007200098DFA8EBB0E077D3ABECB0E039D4ABEB1B
:10073000B0E00C938EDF08959ADFEAEBF0E0A5ECD1
:10074000B0E007D4A8EBB0E066D391DFEAEBF0E0CD
:10075000A8ECB0E0FED3A8EBB0E05DD388DFEAEB15
:10076000F0E0ABECB0E0F5D3ACEBB0E088278C93D5
:10077000E5ECF0E0ACEBB0E055D32CD4E8ECF0E0E5
:10078000ACEBB0E04FD326D4EBECF0E0ACEBB0E058
:1007900049D320D4ACEBB0E003D4A0EBB0E00D9390
:1007A0001D932D933D9308950091B400013009F0FD
:1007B00007C08AE090E0A8EBB0E08D939C932AC339
:1007C000023009F007C08DE090E0A8EBB0E08D9317
:1007D0009C9320C3033009F007C080E190E0A8EBB0
:1007E000B0E08D939C9316C3043009F007C083E1F9
:1007F00090E0A8EBB0E08D939C930CC3053009F01A
:1008000007C086E190E0A8EBB0E08D939C9302C313
:10081000063009F007C089E190E0A8EBB0E08D93C5
:100820009C93F8C2073009F007C08CE190E0A8EB78
:10083000B0E08D939C93EEC2083009F007C08FE1C1
:1008400090E0A8EBB0E08D939C93E4C2093009F0EE
:1008500007C082E290E0A8EBB0E08D939C93DAC2EF
:100860000A3009F007C085E290E0A8EBB0E08D9374
:100870009C93D0C20B3009F007C088E290E0A8EB4F
:10088000B0E08D939C93C6C20C3009F007C08BE298
:1008900090E0A8EBB0E08D939C93BCC20D3009F0C2
:1008A00007C08EE290E0A8EBB0E08D939C93B2C2BB
:1008B0000E3009F007C081E390E0A8EBB0E08D9323
:1008C0009C93A8C20F3009F007C084E390E0A8EB26
:1008D000B0E08D939C939EC2003109F007C087E37E
:1008E00090E0A8EBB0E08D939C9394C2013109F0A5
:1008F00007C08AE390E0A8EBB0E08D939C938AC296
:10090000023109F007C08DE390E0A8EBB0E08D93D1
:100910009C9380C2033109F007C080E490E0A8EB0B
:10092000B0E08D939C9376C2043109F007C083E454
:1009300090E0A8EBB0E08D939C936CC2053109F078
:1009400007C086E490E0A8EBB0E08D939C9362C270
:10095000063109F007C089E490E0A8EBB0E08D9380
:100960009C9358C2073109F007C08CE490E0A8EBD3
:10097000B0E08D939C934EC2083109F007C08FE41C
:1009800090E0A8EBB0E08D939C9344C2093109F04C
:1009900007C082E590E0A8EBB0E08D939C933AC24B
:1009A0000A3109F007C085E590E0A8EBB0E08D932F
:1009B0009C9330C20B3109F007C088E590E0A8EBAA
:1009C000B0E08D939C9326C20C3109F007C08BE5F3
:1009D00090E0A8EBB0E08D939C931CC20D3109F020
:1009E00007C08EE590E0A8EBB0E08D939C9312C217
:1009F0000E3109F007C081E690E0A8EBB0E08D93DE
:100A00009C9308C2083209F007C084E690E0A8EB86
:100A1000B0E08D939C93FEC1093209F007C087E6D0
:100A200090E0A8EBB0E08D939C93F4C10A3209F0FA
:100A300007C08AE690E0A8EBB0E08D939C93EAC1F2
:100A40000B3209F007C08DE690E0A8EBB0E08D9383
:100A50009C93E0C10C3209F007C080E790E0A8EB5E
:100A6000B0E08D939C93D6C10D3209F007C083E7A7
:100A700090E0A8EBB0E08D939C93CCC10E3209F0CE
:100A800007C086E790E0A8EBB0E08D939C93C2C1CD
:100A90000F3209F007C089E790E0A8EBB0E08D9332
:100AA0009C93B8C1003309F007C08CE790E0A8EB35
:100AB000B0E08D939C93AEC1013309F007C08FE77E
:100AC00090E0A8EBB0E08D939C93A4C1023309F0B1
:100AD00007C082E890E0A8EBB0E08D939C939AC1A8
:100AE000033309F007C085E890E0A8EBB0E08D93F0
:100AF0009C9390C1043309F007C088E890E0A8EB0C
:100B0000B0E08D939C9386C1053309F007C08BE854
:100B100090E0A8EBB0E08D939C937CC1063309F084
:100B200007C08EE890E0A8EBB0E08D939C9372C173
:100B3000073309F007C081E990E0A8EBB0E08D939E
:100B40009C9368C1083309F007C084E990E0A8EBE2
:100B5000B0E08D939C935EC1093309F007C087E92B
:100B600090E0A8EBB0E08D939C9354C10A3309F058
:100B700007C08AE990E0A8EBB0E08D939C934AC14E
:100B80000B3309F007C08DE990E0A8EBB0E08D933E
:100B90009C9340C10C3309F007C080EA90E0A8EBB9
:100BA000B0E08D939C9336C1063409F007C083EA08
:100BB00090E0A8EBB0E08D939C932CC1073409F032
:100BC00007C086EA90E0A8EBB0E08D939C9322C129
:100BD000083409F007C089EA90E0A8EBB0E08D93F3
:100BE0009C9318C1093409F007C08CEA90E0A8EB87
:100BF000B0E08D939C930EC10A3409F007C08FEAD0
:100C000090E0A8EBB0E08D939C9304C10B3409F005
:100C100007C082EB90E0A8EBB0E08D939C93FAC004
:100C20000C3409F007C085EB90E0A8EBB0E08D93A1
:100C30009C93F0C00D3409F007C088EB90E0A8EB5E
:100C4000B0E08D939C93E6C00E3409F007C08BEBA7
:100C500090E0A8EBB0E08D939C93DCC00F3409F0DA
:100C600007C08EEB90E0A8EBB0E08D939C93D2C0D0
:100C7000003509F007C081EC90E0A8EBB0E08D935F
:100C80009C93C8C0013509F007C084EC90E0A8EB44
:100C9000B0E08D939C93BEC0023509F007C087EC8D
:100CA00090E0A8EBB0E08D939C93B4C0033509F0BD
:100CB00007C08AEC90E0A8EBB0E08D939C93AAC0AB
:100CC000043509F007C08DEC90E0A8EBB0E08D93FF
:100CD0009C93A0C0053509F007C080ED90E0A8EB1B
:100CE000B0E08D939C9396C0063509F007C083ED64
:100CF00090E0A8EBB0E08D939C938CC0073509F091
:100D000007C086ED90E0A8EBB0E08D939C9382C085
:100D1000083509F007C089ED90E0A8EBB0E08D93AD
:100D20009C9378C0093509F007C08CED90E0A8EBE2
:100D3000B0E08D939C936EC00A3509F007C08FED2B
:100D400090E0A8EBB0E08D939C9364C00B3509F064
:100D500007C082EE90E0A8EBB0E08D939C935AC060
:100D60000C3509F007C085EE90E0A8EBB0E08D935C
:100D70009C9350C00D3509F007C088EE90E0A8EBB9
:100D8000B0E08D939C9346C00E3509F007C08BEE02
:100D900090E0A8EBB0E08D939C933CC00F3509F038
:100DA00007C08EEE90E0A8EBB0E08D939C9332C02C
:100DB000003609F007C081EF90E0A8EBB0E08D931A
:100DC0009C9328C0013609F007C084EF90E0A8EB9F
:100DD000B0E08D939C931EC0023609F007C087EFE8
:100DE00090E0A8EBB0E08D939C9314C0033609F01B
:100DF00007C08AEF90E0A8EBB0E08D939C930AC007
:100E0000043609F007C08DEF90E0A8EBB0E08D93B9
:100E10009C9300C00895ED91FC91EF5FFF4FFC9310
:100E2000EE9308958F938D918823E9F711978F9111
:100E3000089588EE93E00CD03197D9F70895319753
:100E4000F1F70895689462F80895E89462F80895B7
:100E5000EF93FF93EE27E82BE92B31F0E8EEF3E078
:100E60003197F1F70197D1F7FF91EF910895019133
:100E70001191219130810895813618F08B3708F453
:100E80008F7D089504171507260737070895000F6B
:100E9000111F221F331F089500951095209530953E
:100EA0000F5F1F4F2F4F3F4F0895019110810DC0CD
:100EB000DEDF0DC0DCDF10C00191108117FF05C01F
:100EC0003FEF2FEF04C0008111272227332737FF80
:100ED00003C0E2DF8DE28D93CF92DF92EF92AA24DE
:100EE000BB24CC24DD24EE2440E2EAE0FF2755E0D9
:100EF00093E38081890F87FD9F7083FD907F891B1D
:100F000081935A95A9F7C3DFAA1CBB1CCC1CDD1C1E
:100F1000EE1C4A9551F7E894EFE0FF2782910CD040
:100F2000EB30E0F71EF068948A2D0AD088278D9365
:100F3000EF90DF90CF900895982F829501D0892F60
:100F40008F70805D26F0803309F4089568948D9346
:100F5000089541E003C042E001C044E0E40F882767
:100F6000F81F8291982F829505D0892F03D04A953A
:100F7000C1F72DC08F708A3008F0895F805D8D9336
:100F8000089500271127222733278D91882339F0D0
:100F90008053000F111F221F331F080FF6CF089533
:100FA00000271127222733278D91882379F06FDFBF
:100FB0006EDF6DDF6CDF60DF815408F4895F865F70
:100FC000080F8827181F281F381FEECF089588277D
:100FD0008D93089581918D938823E1F70895099168
:100FE0009191992359F08A95D9F73197002331F0DF
:100FF00081918D930A958823C9F70895E8CFB99810
:10100000BA98C198C2980895BA9AB99803D0BA9874
:1010100001D0B99AEF93FF93E1E0F0E010DFFF9188
:10102000EF910895BA9AB99AF5DFBA98B29BFECFBC
:10103000F1DFB998EFCF0894111F01C0110F69F0CB
:10104000BA9A18F40000B99802C0B99A00C0E2DF59
:10105000BA98B29BFECFDEDFF1CFBA9AB998DADF49
:10106000BA98B29BFECFE894B199689462F8D2CF57
:10107000089401C08894331F11E0BA9AB998CADF66
:10108000BA98B29BFECFC6DF8894B1990894111F1D
:10109000A0F7BA9A379510F4B99801C0B99ABADF97
:0A10A000BA98B29BFECFB6DF0895A8
:00000001FF
